:100000000C9462000C948A000C948A000C948A0070
:100010000C948A000C948A000C948A000C948A0038
:100020000C948A000C948A000C948A000C948A0028
:100030000C948A000C948A000C948A000C948A0018
:100040000C94DC030C948A000C9427030C94590341
:100050000C948A000C948A000C948A000C948A00F8
:100060000C948A000C948A00000000080002010031
:100070000003040700000000000000000102040863
:100080001020408001020408102001020408102002
:10009000040404040404040402020202020203032E
:1000A00003030303000000002300260029000000D2
:1000B0000000250028002B0000000000240027007D
:1000C0002A00890311241FBECFEFD8E0DEBFCDBFC9
:1000D00011E0A0E0B1E0E4E4FAE002C005900D9286
:1000E000A231B107D9F721E0A2E1B1E001C01D9230
:1000F000AC3BB207E1F710E0C4ECD0E004C02297BB
:10010000FE010E941C05C23CD107C9F70E94CD0325
:100110000C9420050C94000060E082E00C9496049E
:1001200026E040E855E260E070E086E191E00E9460
:10013000C5020C948C00CF92DF92EF92FF920F9346
:100140001F930E9426040091120110911301209127
:100150001401309115016B017C01C01AD10AE20A29
:10016000F30A48EEC41643E0D406E104F104A8F013
:100170006093120170931301809314019093150101
:1001800082E00E94CF0482E00E94CF044AE050E067
:10019000BC0186E191E00E94DA018091000190911A
:1001A00001018230910571F02CF40197A1F482E0F5
:1001B00090E00DC08430910541F0089761F481E032
:1001C00090E005C084E090E002C088E090E0909369
:1001D0000101809300011F910F91FF90EF90DF903C
:1001E000CF900895CF92DF92EF92FF920F931F93DB
:1001F000CF93DF936C017A01EB01E60EF71E00E06E
:1002000010E0CE15DF0561F06991D601ED91FC910A
:100210000190F081E02DC6010995080F191FF1CF5B
:10022000C801DF91CF911F910F91FF90EF90DF9068
:10023000CF9008956115710581F0DB010D900020CC
:10024000E9F7AD0141505109461B570BDC01ED9117
:10025000FC910280F381E02D099480E090E0089504
:10026000DC01ED91FC910190F081E02D09948F92D9
:100270009F92AF92BF92CF92DF92EF92FF920F9335
:100280001F93CF93DF93CDB7DEB7A1970FB6F89446
:10029000DEBF0FBECDBF7C01C42EE52FCB01D22E19
:1002A00019A221E02D1510F02AE0D22E8E010F5D4B
:1002B0001F4F8D2C912CA12CB12C6C2D7E2FA501C4
:1002C00094010E94F8048C2DD29E801911240150B3
:1002D00011098A3014F4805D01C0895CF8018083C3
:1002E000211531054105510521F0C22EE32FCA0128
:1002F000E4CFB801C7010E941A01A1960FB6F89485
:10030000DEBF0FBECDBFDF91CF911F910F91FF9048
:10031000EF90DF90CF90BF90AF909F908F90089517
:10032000CF92DF92EF92FF920F931F93CF93DF93C1
:10033000EC016A017B012115310579F4E881F9812D
:100340000190F081E02D642FDF91CF911F910F91EB
:10035000FF90EF90DF90CF9009942A303105E9F4B7
:1003600077FF1AC06DE20E9430018C0144275527A7
:10037000BA014C195D096E097F092AE0CE010E947D
:100380003701800F911FDF91CF911F910F91FF9047
:10039000EF90DF90CF9008952AE0B701A601CE013B
:1003A000DF91CF911F910F91FF90EF90DF90CF9051
:1003B0000C9437019A01AB01662757FD6095762FA3
:1003C0000C949001FC01818D228D90E0805C9F4F08
:1003D000821B91098F7399270895FC01918D828D5D
:1003E000981731F0828DE80FF11D858D90E008950A
:1003F0008FEF9FEF0895FC01918D828D981761F02A
:10040000828DDF01A80FB11D5D968C91928D9F5F4B
:100410009F73928F90E008958FEF9FEF08958FE77D
:1004200093E0892B49F080E090E0892B29F00E942D
:100430007F0381110C9400000895FC01848DDF017D
:10044000A80FB11DA35ABF4F2C91848D90E0019647
:100450008F739927848FA689B7892C93A089B18936
:100460008C9180648C93938D848D981306C0028840
:10047000F389E02D80818F7D80830895CF93DF9372
:10048000EC01888D8823C9F0EA89FB89808185FD8C
:1004900005C0A889B9898C9186FD0FC00FB607FCED
:1004A000F5CF808185FFF2CFA889B9898C9185FF2E
:1004B000EDCFCE010E941D02E7CFDF91CF910895CD
:1004C000CF92DF92FF920F931F93CF93DF931F92F0
:1004D000CDB7DEB76C0181E0D60158968C93589762
:1004E0005B969C915B975C968C915C97981307C088
:1004F0005096ED91FC915197808185FD2EC0F601BB
:10050000038D10E00F5F1F4F0F731127F02EF601C0
:10051000848DF81211C00FB607FCF9CFD6015096A2
:10052000ED91FC915197808185FFF1CFC6016983E0
:100530000E941D026981EBCF838DE80FF11DE35A04
:10054000FF4F6083D6015B960C935B975296ED91BB
:10055000FC915397808180620CC0D6015696ED9134
:10056000FC91579760835096ED91FC915197808153
:100570008064808381E090E00F90DF91CF911F91A4
:100580000F91FF90DF90CF900895BF92CF92DF92AE
:10059000EF92FF92CF93DF93EC016A017B01B22EC1
:1005A000E889F98982E08083411581EE5807610569
:1005B0007105A1F060E079E08DE390E0A70196017C
:1005C0000E94F80421503109410951095695479577
:1005D00037952795211580E1380798F0E889F98942
:1005E000108260E874E88EE190E0A70196010E9415
:1005F000F80421503109410951095695479537951D
:100600002795EC85FD853083EE85FF852083188E48
:10061000EC89FD89B082EA89FB89808180618083D1
:10062000EA89FB89808188608083EA89FB898081EF
:1006300080688083EA89FB8980818F7D8083DF9158
:10064000CF91FF90EF90DF90CF90BF9008951F92D1
:100650000F920FB60F9211242F938F939F93EF93C6
:10066000FF93E0912601F09127018081E0912C0118
:10067000F0912D0182FD12C0908180912F018F5F3A
:100680008F7320913001821751F0E0912F01F0E03B
:10069000EA5EFE4F958F80932F0101C08081FF910C
:1006A000EF919F918F912F910F900FBE0F901F9000
:1006B00018951F920F920FB60F9211242F933F930C
:1006C0004F935F936F937F938F939F93AF93BF935A
:1006D000EF93FF9386E191E00E941D02FF91EF915D
:1006E000BF91AF919F918F917F916F915F914F914A
:1006F0003F912F910F900FBE0F901F90189586E19C
:1007000091E00E94E20121E0892B09F420E0822F90
:100710000895109219011092180188EE93E0A0E05C
:10072000B0E080931A0190931B01A0931C01B09339
:100730001D0186E091E0909317018093160185ECEE
:1007400090E0909323018093220184EC90E09093B9
:1007500025018093240180EC90E090932701809301
:10076000260181EC90E0909329018093280182EC8E
:1007700090E090932B0180932A0186EC90E0909377
:100780002D0180932C0110922F01109230011092B4
:10079000310110923201089508950E9432040E949E
:1007A000CC030E949000CFE0D2E00E949B002097F3
:1007B000E1F30E940F02F9CF1F920F920FB60F9232
:1007C00011242F933F938F939F93AF93BF93809167
:1007D000B4019091B501A091B601B091B7013091EB
:1007E000B30123E0230F2D3720F40196A11DB11D85
:1007F00005C026E8230F0296A11DB11D2093B30169
:100800008093B4019093B501A093B601B093B70162
:100810008091B8019091B901A091BA01B091BB014A
:100820000196A11DB11D8093B8019093B901A093C9
:10083000BA01B093BB01BF91AF919F918F913F914E
:100840002F910F900FBE0F901F9018952FB7F8940F
:100850006091B4017091B5018091B6019091B7019A
:100860002FBF0895789484B5826084BD84B581607B
:1008700084BD85B5826085BD85B5816085BDEEE6A8
:10088000F0E0808181608083E1E8F0E01082808187
:1008900082608083808181608083E0E8F0E08081F5
:1008A00081608083E1EBF0E0808184608083E0EB15
:1008B000F0E0808181608083EAE7F0E080818460FD
:1008C0008083808182608083808181608083808159
:1008D000806880831092C1000895833081F028F4ED
:1008E000813099F08230A1F008958730A9F08830E6
:1008F000B9F08430D1F4809180008F7D03C0809165
:1009000080008F7780938000089584B58F7702C030
:1009100084B58F7D84BD08958091B0008F7703C02A
:100920008091B0008F7D8093B0000895CF93DF93C6
:1009300090E0FC01E458FF4F2491FC01E057FF4F89
:100940008491882349F190E0880F991FFC01E854B5
:10095000FF4FA591B49182559F4FFC01C591D49151
:100960009FB7611108C0F8948C91209582238C93D5
:10097000888182230AC0623051F4F8948C91322F1E
:10098000309583238C938881822B888304C0F894CC
:100990008C91822B8C939FBFDF91CF910895CF9341
:1009A000DF93282F30E0F901E859FF4F8491F901D6
:1009B000E458FF4FD491F901E057FF4FC491CC2385
:1009C00091F081110E946D04EC2FF0E0EE0FFF1FFB
:1009D000EC55FF4FA591B4912C912D2381E090E02F
:1009E00021F480E002C080E090E0DF91CF91089593
:1009F000A1E21A2EAA1BBB1BFD010DC0AA1FBB1F23
:100A0000EE1FFF1FA217B307E407F50720F0A21B94
:100A1000B30BE40BF50B661F771F881F991F1A9401
:100A200069F760957095809590959B01AC01BD012B
:100A3000CF010895EE0FFF1F0590F491E02D09946A
:040A4000F894FFCF58
:100A44000100000000006002F200E201FB01ED0180
:020A54003E0260
:00000001FF
