:100000000C9449010C947A010C947A010C947A01B5
:100010000C947A010C947A010C947A010C947A0174
:100020000C947A010C947A010C947A010C947A0164
:100030000C947A010C947A010C947A010C947A0154
:100040000C947A010C947A010C947A010C947A0144
:100050000C947A010C947A010C947A010C94890620
:100060000C947A010C94A0050C94D6050C947A019A
:100070000C947A010C947A010C947A010C947A0114
:100080000C947A010C947A010C947A010C947A0104
:100090000C947A010C947A010C947A010C947A01F4
:1000A0000C947A010C947A010C947A010C947A01E4
:1000B0000C947A010C947A010C947A010C947A01D4
:1000C0000C947A010C947A010C947A010C947A01C4
:1000D0000C947A010C947A010C947A010C947A01B4
:1000E0000C947A016507680757075B0761079F074C
:1000F0006C07700776077A077E07840788078C07E6
:100100009F07920796079A070C9457070C948C0741
:100110000C9484070C9400060C9437040C946C0720
:100120000C9445040C949F070C9459040C942C04D3
:100130000C94D9040C9488070C9492070C945B07D8
:100140000C9496070C9476070C9468070C9465073A
:100150000C947A070C949A070C947E070C94F50281
:100160000C9461070C940A060C9470070C94B70465
:1001700000000A0B02090C0D0E0807030401000021
:10018000000000000000000000000000000000006F
:10019000000000000000000000000000121110002C
:1001A000000000000000000000000000000000004F
:1001B000000000000000010210202008081020406C
:1001C000102040800201020108040201010204081B
:1001D00010204080804020100804020180040201A9
:1001E00080402010080402010804020101020408F2
:1001F00010204080010204081020408005050505FC
:10020000070508080808020202020A0A080804048E
:1002100004040101010101010101030303030303BC
:100220000303040707070C0C0C0C0C0C0C0C02024B
:10023000020206060606060606060B0B0B0B0B0B48
:100240000B0B000020002300260029002C002F00AB
:100250003200000100000301060109010000220034
:10026000250028002B002E00310034000201000080
:10027000050108010B0100002100240027002A00CD
:100280002D003000330001010000040107010A01C4
:100290000A0611241FBECFEFD1E2DEBFCDBF00E0C2
:1002A0000CBF12E0A0E0B2E0EEEBF2E100E00BBF29
:1002B00002C007900D92AC33B107D9F722E0ACE34E
:1002C000B2E001C01D92AA3EB207E1F712E0C2E916
:1002D000D2E000E006C022970109FE010BBF0E9498
:1002E0005909C039D10780E00807A9F70E944E06D6
:1002F0000C945D090C940000CF92DF92EF92FF9274
:100300000F931F93E82FF92F05C001501109210900
:10031000310961F1908196239417B9F305C001501A
:1003200011092109310911F1908196239413F7CF16
:10033000C12CD12CE12CF12C0AC08FEFC81AD80A9D
:10034000E80AF80A0C151D052E053F0579F0808195
:100350008623841791F36C2D7D2D8E2D9F2D1F915B
:100360000F91FF90EF90DF90CF90089560E070E0E4
:1003700080E090E01F910F91FF90EF90DF90CF9081
:10038000089560E082E00E94A00761E083E00E949F
:10039000A00760E083E00C94D90761E083E00E944D
:1003A000D9078AE090E00E94DF0660E083E00E94C7
:1003B000D90720E432E44FE050E061E082E00E949F
:1003C0005D060E94420826E933E44BE05DE30E94AB
:1003D000CE0820E030E040E05FE30E94CE080E94BB
:1003E0000F08CB01089561E084E00E94A00760E05F
:1003F00084E00E94D90761E085E00E94A00760E0E8
:1004000085E00E94D90761E086E00E94A00760E0D5
:1004100086E00E94D90761E087E00E94A00760E0C3
:1004200087E00C94D90761E084E00C94D90760E080
:1004300084E00C94D90761E085E00E94D90761E06F
:1004400086E00C94D90726E040E855E260E070E0D1
:1004500084E492E00E943E050E94C1010C94F301E5
:10046000CF92DF92EF92FF92809100029091010271
:100470008230910509F452C01CF4019759F0B0C0C4
:100480008430910509F49EC0089709F0A9C081E065
:1004900090E0A2C00E94D306C0904002D0904102DA
:1004A000E0904202F09043029B01AC012C193D09FF
:1004B0004E095F0969017A0138EBC3163BE0D306A8
:1004C000E104F10408F48CC060934002709341028F
:1004D00080934202909343020E94CD017C0162E02E
:1004E00072E084E492E00E9433034AE050E0B701F6
:1004F00084E492E00E94E3034DE3E416F1040CF07F
:100500006FC00E94D30660933C0270933D028093BB
:100510003E0290933F0282E090E05EC00E94D306CC
:100520006B017C012AE030E0AB01BC0184E492E085
:100530000E941A0440913C0250913D0260913E029B
:1005400070913F022AE030E084E492E00E941A04B5
:100550002AE030E048EB5BE060E070E084E492E0A9
:100560000E94FB0380913C0290913D02A0913E02CB
:10057000B0913F02A7019601281B390B4A0B5B0B78
:10058000DA01C901893B9B40A105B105B0F0C092D9
:100590003C02D0923D02E0923E02F0923F026DE0BA
:1005A00072E084E492E00E9433030E941302FF9001
:1005B000EF90DF90CF900C941B020E94170284E012
:1005C00090E00AC062E172E084E492E0FF90EF9074
:1005D000DF90CF900C94330390930102809300023C
:1005E000FF90EF90DF90CF900895CF92DF92EF923F
:1005F000FF920F931F93CF93DF936C017A01EB016E
:10060000E60EF71E00E010E0CE15DF0561F06991FF
:10061000D601ED91FC910190F081E02DC601199574
:10062000080F191FF1CFC801DF91CF911F910F91D2
:10063000FF90EF90DF90CF9008956115710581F0E4
:10064000DB010D900020E9F7AD0141505109461B37
:10065000570BDC01ED91FC910280F381E02D1994A0
:1006600080E090E008950C941D03DC01ED91FC9175
:100670000190F081E02D19946BE172E00C941D0360
:100680008F929F92AF92BF92CF92DF92EF92FF92A2
:100690000F931F93CF93DF93CDB7DEB7A1970FB61C
:1006A000F894DEBF0FBECDBF7C01C42EE52FCB0179
:1006B000D22E19A221E02D1510F02AE0D22E8E01A3
:1006C0000F5D1F4F8D2C912CA12CB12C6C2D7E2FEA
:1006D000A50194010E9431098C2DD29E801911240C
:1006E000015011098A3014F4805D01C0895CF80161
:1006F0008083211531054105510521F0C22EE32FDC
:10070000CA01E4CFB801C7010E941D03A1960FB62C
:10071000F894DEBF0FBECDBFDF91CF911F910F9137
:10072000FF90EF90DF90CF90BF90AF909F908F9011
:100730000895CF92DF92EF92FF920F931F93CF9382
:10074000DF93EC016A017B012115310579F4E88121
:10075000F9810190F081E02D642FDF91CF911F91FD
:100760000F91FF90EF90DF90CF9019942A303105D0
:10077000E9F477FF1AC06DE20E9435038C0144272B
:100780005527BA014C195D096E097F092AE0CE018F
:100790000E944003800F911FDF91CF911F910F9115
:1007A000FF90EF90DF90CF9008952AE0B701A60167
:1007B000CE01DF91CF911F910F91FF90EF90DF90CD
:1007C000CF900C9440030F931F93CF93DF93EC01D2
:1007D0009A01AB01662757FD6095762F0E94990319
:1007E0008C01CE010E943C03800F911FDF91CF91BD
:1007F0001F910F9108950F931F93CF93DF93EC01F7
:100800000E9499038C01CE010E943C03800F911F2E
:10081000DF91CF911F910F9108952115310541F47A
:10082000DC01ED91FC910190F081E02D642F199491
:100830000C9440030F931F93CF93DF93EC010E941E
:100840000D048C01CE010E943C03800F911FDF91AB
:10085000CF911F910F910895FC01818D228D90E021
:10086000805C9F4F821B91098F7399270895FC012B
:10087000918D828D981731F0828DE80FF11D858D55
:1008800090E008958FEF9FEF0895FC01918D828D88
:10089000981761F0828DDF01A80FB11D5D968C91D4
:1008A000928D9F5F9F73928F90E008958FEF9FEFDF
:1008B000089580E096E0892B41F080E090E0892B5C
:1008C00021F00E940006811125C080E090E0892B74
:1008D00041F080E090E0892B21F00E94000081111E
:1008E0001CC080E090E0892B41F080E090E0892BF3
:1008F00021F00E940000811113C080E090E0892B5C
:10090000A1F080E090E0892B81F00E94000081112D
:100910000AC008950E940000D8CF0E940000E1CFD5
:100920000E940000EACF0C9400000895FC01848D21
:10093000DF01A80FB11DA35ABF4F2C91848D90E009
:1009400001968F739927848FA689B7892C93A089E4
:10095000B1898C9180648C93938D848D981306C09B
:100960000288F389E02D80818F7D80830895CF9365
:10097000DF93EC01888D8823C9F0EA89FB898081A7
:1009800085FD05C0A889B9898C9186FD0FC00FB679
:1009900007FCF5CF808185FFF2CFA889B9898C91BA
:1009A00085FFEDCFCE010E949604E7CFDF91CF9176
:1009B0000895CF92DF92FF920F931F93CF93DF930F
:1009C0001F92CDB7DEB76C0181E0D60158968C93AB
:1009D00058975B969C915B975C968C915C9798136B
:1009E00007C05096ED91FC915197808185FD2EC0F6
:1009F000F601038D10E00F5F1F4F0F731127F02ECC
:100A0000F601848DF81211C00FB607FCF9CFD6019C
:100A10005096ED91FC915197808185FFF1CFC601F1
:100A200069830E9496046981EBCF838DE80FF11DE5
:100A3000E35AFF4F6083D6015B960C935B97529607
:100A4000ED91FC915397808180620CC0D60156963F
:100A5000ED91FC91579760835096ED91FC915197E1
:100A600080818064808381E090E00F90DF91CF915E
:100A70001F910F91FF90DF90CF900895BF92CF927A
:100A8000DF92EF92FF92CF93DF93EC016A017B013B
:100A9000B22EE889F98982E08083411581EE5807FA
:100AA00061057105A1F060E079E08DE390E0A701B8
:100AB00096010E9431092150310941095109569589
:100AC000479537952795211580E1380798F0E889F3
:100AD000F989108260E874E88EE190E0A701960140
:100AE0000E94310921503109410951095695479514
:100AF00037952795EC85FD853083EE85FF8520832E
:100B0000188EEC89FD89B082EA89FB898081806139
:100B10008083EA89FB89808188608083EA89FB89F8
:100B2000808180688083EA89FB8980818F7D8083D2
:100B3000DF91CF91FF90EF90DF90CF90BF9008951D
:100B40001F920F920FB60F9211240BB60F922F9394
:100B50008F939F93EF93FF93E0915402F09155028E
:100B60008081E0915A02F0915B0282FD12C0908177
:100B700080915D028F5F8F7320915E02821751F02A
:100B8000E0915D02F0E0EC5BFD4F958F80935D029C
:100B900001C08081FF91EF919F918F912F910F90D4
:100BA0000BBE0F900FBE0F901F9018951F920F92C3
:100BB0000FB60F9211240BB60F922F933F934F93C2
:100BC0005F936F937F938F939F93AF93BF93EF93B5
:100BD000FF9384E492E00E949604FF91EF91BF910D
:100BE000AF919F918F917F916F915F914F913F91C5
:100BF0002F910F900BBE0F900FBE0F901F90189566
:100C000084E492E00E942C0421E0892B09F420E086
:100C1000822F0895109247021092460288EE93E0C8
:100C2000A0E0B0E08093480290934902A0934A026A
:100C3000B0934B0280E392E090934502809344028C
:100C400085EC90E0909351028093500284EC90E008
:100C5000909353028093520280EC90E0909355025F
:100C60008093540281EC90E0909357028093560257
:100C700082EC90E0909359028093580286EC90E0C9
:100C800090935B0280935A0210925D0210925E0272
:100C900010925F0210926002089508950E94EA0681
:100CA0000E944D060E942302C9E5D4E00E94300252
:100CB0002097E1F30E945904F9CF0F931F93762FE9
:100CC00090E0FC01EA54FE4F6491FC01E450FE4FB9
:100CD000E4917111762FF0E0EE0FFF1FEE5BFD4FF8
:100CE0008591949189019A013F70472F0E947C0160
:100CF000611571058105910531F06F5F7F4F8F4F51
:100D00009F4F9F7003C060E070E0CB011F910F9177
:100D100008951F920F920FB60F9211242F933F93B5
:100D20008F939F93AF93BF938091E2029091E302E0
:100D3000A091E402B091E5023091E10223E0230F9B
:100D40002D3720F40196A11DB11D05C026E8230F03
:100D50000296A11DB11D2093E1028093E2029093BF
:100D6000E302A093E402B093E5028091E602909141
:100D7000E702A091E802B091E9020196A11DB11D20
:100D80008093E6029093E702A093E802B093E90211
:100D9000BF91AF919F918F913F912F910F900FBE77
:100DA0000F901F9018952FB7F8946091E202709100
:100DB000E3028091E4029091E5022FBF0895823012
:100DC000910538F0880F991F880F991F0597019793
:100DD000F1F70895789484B5826084BD84B581600C
:100DE00084BD85B5826085BD85B5816085BDEEE633
:100DF000F0E0808181608083E1E8F0E01082808112
:100E000082608083808181608083E0E8F0E080817F
:100E100081608083E1EBF0E0808184608083E0EB9F
:100E2000F0E0808181608083E1E9F0E08081826090
:100E30008083808181608083E0E9F0E0808181604F
:100E40008083E1EAF0E0808182608083808181603C
:100E50008083E0EAF0E0808181608083E1E2F1E07C
:100E6000808182608083808181608083E0E2F1E024
:100E7000808181608083EAE7F0E080818460808304
:100E800080818260808380818160808380818068AE
:100E900080831092C100089590E0FC013197E23107
:100EA000F10508F04CC0EE58FF4F0C9453098091A7
:100EB00080008F7703C0809180008F7D80938000B9
:100EC000089580918000877FF9CF84B58F7702C025
:100ED00084B58F7D84BD08958091B0008F7703C065
:100EE0008091B0008F7D8093B00008958091900034
:100EF0008F7707C0809190008F7D03C08091900014
:100F0000877F8093900008958091A0008F7707C01D
:100F10008091A0008F7D03C08091A000877F809387
:100F2000A0000895809120018F7707C08091200153
:100F30008F7D03C080912001877F809320010895D9
:100F4000CF93DF9390E0FC01EA54FE4F2491FC0123
:100F5000E450FE4F8491882349F190E0880F991F57
:100F6000FC01EA58FD4FA591B491845A9D4FFC01B4
:100F7000C591D4919FB7611108C0F8948C912095C8
:100F800082238C93888182230AC0623051F4F894C2
:100F90008C91322F309583238C938881822B888388
:100FA00004C0F8948C91822B8C939FBFDF91CF91DA
:100FB00008950F931F93CF93DF931F92CDB7DEB7A2
:100FC000282F30E0F901E059FE4F8491F901EA54ED
:100FD000FE4F1491F901E450FE4F04910023C9F033
:100FE000882321F069830E944C076981E02FF0E09B
:100FF000EE0FFF1FE45AFD4FA591B4919FB7F894EF
:101000008C91611103C01095812301C0812B8C93B9
:101010009FBF0F90DF91CF911F910F91089504D042
:101020006894B111B5C0089598D088F09F5790F09A
:10103000B92F9927B751A0F0D1F0660F771F881FFD
:10104000991F1AF0BA95C9F712C0B13081F09FD03C
:10105000B1E008959CC0672F782F8827B85F39F0DA
:10106000B93FCCF3869577956795B395D9F73EF45C
:1010700090958095709561957F4F8F4F9F4F089504
:10108000E89409C097FB3EF4909580957095619522
:101090007F4F8F4F9F4F9923A9F0F92F96E9BB27D8
:1010A0009395F695879577956795B795F111F8CF54
:1010B000FAF4BB0F11F460FF1BC06F5F7F4F8F4FBF
:1010C0009F4F16C0882311F096E911C0772321F0B5
:1010D0009EE8872F762F05C0662371F096E8862F4D
:1010E00070E060E02AF09A95660F771F881FDAF7A4
:1010F000880F9695879597F9089597F99F6780E8E7
:1011000070E060E008959FEF80EC089500240A9459
:101110001616170618060906089500240A941216D2
:101120001306140605060895092E0394000C11F405
:10113000882352F0BB0F40F4BF2B11F460FF04C0B2
:101140006F5F7F4F8F4F9F4F089557FD9058440F0B
:10115000551F59F05F3F71F04795880F97FB991F16
:1011600061F09F3F79F087950895121613061406D3
:10117000551FF2CF4695F1DF08C016161706180660
:10118000991FF1CF86957105610508940895E8943B
:10119000BB2766277727CB0197F908950BD0C4CFDB
:1011A000B5DF28F0BADF18F0952309F0A6CFABCF52
:1011B0001124EECFCADFA0F3959FD1F3950F50E035
:1011C000551F629FF001729FBB27F00DB11D639FF9
:1011D000AA27F00DB11DAA1F649F6627B00DA11D9F
:1011E000661F829F2227B00DA11D621F739FB00D45
:1011F000A11D621F839FA00D611D221F749F3327B5
:10120000A00D611D231F849F600D211D822F762F4D
:101210006A2F11249F5750408AF0E1F088234AF04A
:10122000EE0FFF1FBB1F661F771F881F9150504096
:10123000A9F79E3F510570F060CFAACF5F3FECF356
:10124000983EDCF3869577956795B795F795E79582
:101250009F5FC1F7FE2B880F911D9695879597F993
:101260000895A1E21A2EAA1BBB1BFD010DC0AA1FE7
:10127000BB1FEE1FFF1FA217B307E407F50720F0FF
:10128000A21BB30BE40BF50B661F771F881F991F7A
:101290001A9469F760957095809590959B01AC01C3
:1012A000BD01CF010895EE0FFF1F0590F491E02DD1
:0E12B00019940790F691E02D1994F894FFCF51
:1012BE00010044697374616E63653A2000535542B0
:1012CE0045004D414E5449454E45000D0A006E6194
:1012DE006E00696E66006F7666002E0000000000DC
:0C12EE00D904F5022C0445043704B704B1
:00000001FF
